{
  "_format": "hh-sol-artifact-1",
  "contractName": "WinFactory",
  "sourceName": "contracts/WinFactory.sol",
  "abi": [
    {
      "inputs": [
        {
          "internalType": "address",
          "name": "tokenA",
          "type": "address"
        },
        {
          "internalType": "address",
          "name": "tokenB",
          "type": "address"
        }
      ],
      "name": "WinDex__IdenticalAddress",
      "type": "error"
    },
    {
      "inputs": [
        {
          "internalType": "address",
          "name": "pair",
          "type": "address"
        }
      ],
      "name": "WinDex__PairAlreadyExists",
      "type": "error"
    },
    {
      "inputs": [
        {
          "internalType": "address",
          "name": "pair",
          "type": "address"
        }
      ],
      "name": "WinDex__PairDoesNotExist",
      "type": "error"
    },
    {
      "inputs": [
        {
          "internalType": "address",
          "name": "token",
          "type": "address"
        }
      ],
      "name": "WinDex__ZeroAddress",
      "type": "error"
    },
    {
      "anonymous": false,
      "inputs": [
        {
          "indexed": true,
          "internalType": "address",
          "name": "tokenA",
          "type": "address"
        },
        {
          "indexed": true,
          "internalType": "address",
          "name": "tokenB",
          "type": "address"
        },
        {
          "indexed": false,
          "internalType": "address",
          "name": "pair",
          "type": "address"
        }
      ],
      "name": "pairingCreated",
      "type": "event"
    },
    {
      "anonymous": false,
      "inputs": [
        {
          "indexed": true,
          "internalType": "address",
          "name": "pair",
          "type": "address"
        }
      ],
      "name": "pairingDeleted",
      "type": "event"
    },
    {
      "inputs": [
        {
          "internalType": "address",
          "name": "tokenA",
          "type": "address"
        },
        {
          "internalType": "address",
          "name": "tokenB",
          "type": "address"
        }
      ],
      "name": "createNewPairing",
      "outputs": [
        {
          "internalType": "address",
          "name": "pair",
          "type": "address"
        }
      ],
      "stateMutability": "nonpayable",
      "type": "function"
    },
    {
      "inputs": [
        {
          "internalType": "address",
          "name": "_pair",
          "type": "address"
        }
      ],
      "name": "deletePairing",
      "outputs": [],
      "stateMutability": "nonpayable",
      "type": "function"
    },
    {
      "inputs": [],
      "name": "getNumPairs",
      "outputs": [
        {
          "internalType": "uint256",
          "name": "",
          "type": "uint256"
        }
      ],
      "stateMutability": "view",
      "type": "function"
    },
    {
      "inputs": [
        {
          "internalType": "address",
          "name": "tokenA",
          "type": "address"
        },
        {
          "internalType": "address",
          "name": "tokenB",
          "type": "address"
        }
      ],
      "name": "getPair",
      "outputs": [
        {
          "internalType": "address",
          "name": "",
          "type": "address"
        }
      ],
      "stateMutability": "view",
      "type": "function"
    },
    {
      "inputs": [
        {
          "internalType": "uint256",
          "name": "index",
          "type": "uint256"
        }
      ],
      "name": "getPairAtIndex",
      "outputs": [
        {
          "internalType": "address",
          "name": "",
          "type": "address"
        }
      ],
      "stateMutability": "view",
      "type": "function"
    },
    {
      "inputs": [
        {
          "internalType": "address",
          "name": "",
          "type": "address"
        },
        {
          "internalType": "address",
          "name": "",
          "type": "address"
        }
      ],
      "name": "s_tokenPairing",
      "outputs": [
        {
          "internalType": "address",
          "name": "",
          "type": "address"
        }
      ],
      "stateMutability": "view",
      "type": "function"
    }
  ],
  "bytecode": "0x608060405234801561001057600080fd5b5061206d806100206000396000f3fe608060405234801561001057600080fd5b50600436106100625760003560e01c80632398184d1461006757806326c9c320146100975780634dc214ad146100b35780636a4e8b39146100d15780638704fc4014610101578063e6a4390514610131575b600080fd5b610081600480360381019061007c9190610bf9565b610161565b60405161008e9190610cc7565b60405180910390f35b6100b160048036038101906100ac9190610bcc565b61050e565b005b6100bb61072c565b6040516100c89190610d0b565b60405180910390f35b6100eb60048036038101906100e69190610c39565b610739565b6040516100f89190610cc7565b60405180910390f35b61011b60048036038101906101169190610bf9565b610781565b6040516101289190610cc7565b60405180910390f35b61014b60048036038101906101469190610bf9565b6107c3565b6040516101589190610cc7565b60405180910390f35b600061016d8383610917565b6102116000808573ffffffffffffffffffffffffffffffffffffffff1673ffffffffffffffffffffffffffffffffffffffff16815260200190815260200160002060008473ffffffffffffffffffffffffffffffffffffffff1673ffffffffffffffffffffffffffffffffffffffff16815260200190815260200160002060009054906101000a900473ffffffffffffffffffffffffffffffffffffffff16610a72565b60006040518060200161022390610b95565b6020820181038252601f19601f8201166040525090506000848460405160200161024e929190610c9b565b604051602081830303815290604052805190602001209050808251602084016000f59250826000808773ffffffffffffffffffffffffffffffffffffffff1673ffffffffffffffffffffffffffffffffffffffff16815260200190815260200160002060008673ffffffffffffffffffffffffffffffffffffffff1673ffffffffffffffffffffffffffffffffffffffff16815260200190815260200160002060006101000a81548173ffffffffffffffffffffffffffffffffffffffff021916908373ffffffffffffffffffffffffffffffffffffffff160217905550826000808673ffffffffffffffffffffffffffffffffffffffff1673ffffffffffffffffffffffffffffffffffffffff16815260200190815260200160002060008773ffffffffffffffffffffffffffffffffffffffff1673ffffffffffffffffffffffffffffffffffffffff16815260200190815260200160002060006101000a81548173ffffffffffffffffffffffffffffffffffffffff021916908373ffffffffffffffffffffffffffffffffffffffff1602179055506001600260008573ffffffffffffffffffffffffffffffffffffffff1673ffffffffffffffffffffffffffffffffffffffff16815260200190815260200160002060006101000a81548160ff0219169083151502179055506001839080600181540180825580915050600190039060005260206000200160009091909190916101000a81548173ffffffffffffffffffffffffffffffffffffffff021916908373ffffffffffffffffffffffffffffffffffffffff1602179055508373ffffffffffffffffffffffffffffffffffffffff168573ffffffffffffffffffffffffffffffffffffffff167f1ca325d8a248c144ac66441bc260a39ec462855271390b7b7da8b81c668d9b65856040516104fe9190610cc7565b60405180910390a3505092915050565b61051781610b04565b60005b600180549050811015610728576001818154811061053b5761053a610e61565b5b9060005260206000200160009054906101000a900473ffffffffffffffffffffffffffffffffffffffff1673ffffffffffffffffffffffffffffffffffffffff168273ffffffffffffffffffffffffffffffffffffffff16141561071557600181815481106105ad576105ac610e61565b5b9060005260206000200160006101000a81549073ffffffffffffffffffffffffffffffffffffffff0219169055600060018080805490506105ee9190610d26565b815481106105ff576105fe610e61565b5b9060005260206000200160009054906101000a900473ffffffffffffffffffffffffffffffffffffffff169050806001838154811061064157610640610e61565b5b9060005260206000200160006101000a81548173ffffffffffffffffffffffffffffffffffffffff021916908373ffffffffffffffffffffffffffffffffffffffff160217905550600180548061069b5761069a610e32565b5b6001900381819060005260206000200160006101000a81549073ffffffffffffffffffffffffffffffffffffffff021916905590558273ffffffffffffffffffffffffffffffffffffffff167f480cc0160eaaa99ea77b486709e90901785b3de8b5127126f5a7d0a57df1e97e60405160405180910390a2505b808061072090610d96565b91505061051a565b5050565b6000600180549050905090565b60006001828154811061074f5761074e610e61565b5b9060005260206000200160009054906101000a900473ffffffffffffffffffffffffffffffffffffffff169050919050565b60006020528160005260406000206020528060005260406000206000915091509054906101000a900473ffffffffffffffffffffffffffffffffffffffff1681565b60006107cf8383610917565b6108736000808573ffffffffffffffffffffffffffffffffffffffff1673ffffffffffffffffffffffffffffffffffffffff16815260200190815260200160002060008473ffffffffffffffffffffffffffffffffffffffff1673ffffffffffffffffffffffffffffffffffffffff16815260200190815260200160002060009054906101000a900473ffffffffffffffffffffffffffffffffffffffff16610b04565b6000808473ffffffffffffffffffffffffffffffffffffffff1673ffffffffffffffffffffffffffffffffffffffff16815260200190815260200160002060008373ffffffffffffffffffffffffffffffffffffffff1673ffffffffffffffffffffffffffffffffffffffff16815260200190815260200160002060009054906101000a900473ffffffffffffffffffffffffffffffffffffffff16905092915050565b600073ffffffffffffffffffffffffffffffffffffffff168273ffffffffffffffffffffffffffffffffffffffff16141561098957816040517f223308930000000000000000000000000000000000000000000000000000000081526004016109809190610cc7565b60405180910390fd5b600073ffffffffffffffffffffffffffffffffffffffff168173ffffffffffffffffffffffffffffffffffffffff1614156109fb57806040517f223308930000000000000000000000000000000000000000000000000000000081526004016109f29190610cc7565b60405180910390fd5b8073ffffffffffffffffffffffffffffffffffffffff168273ffffffffffffffffffffffffffffffffffffffff161415610a6e5781816040517fc429ceab000000000000000000000000000000000000000000000000000000008152600401610a65929190610ce2565b60405180910390fd5b5050565b600260008273ffffffffffffffffffffffffffffffffffffffff1673ffffffffffffffffffffffffffffffffffffffff16815260200190815260200160002060009054906101000a900460ff1615610b0157806040517fc4b25254000000000000000000000000000000000000000000000000000000008152600401610af89190610cc7565b60405180910390fd5b50565b600260008273ffffffffffffffffffffffffffffffffffffffff1673ffffffffffffffffffffffffffffffffffffffff16815260200190815260200160002060009054906101000a900460ff16610b9257806040517f116dd389000000000000000000000000000000000000000000000000000000008152600401610b899190610cc7565b60405180910390fd5b50565b61116780610ed183390190565b600081359050610bb181610ea2565b92915050565b600081359050610bc681610eb9565b92915050565b600060208284031215610be257610be1610e90565b5b6000610bf084828501610ba2565b91505092915050565b60008060408385031215610c1057610c0f610e90565b5b6000610c1e85828601610ba2565b9250506020610c2f85828601610ba2565b9150509250929050565b600060208284031215610c4f57610c4e610e90565b5b6000610c5d84828501610bb7565b91505092915050565b610c6f81610d5a565b82525050565b610c86610c8182610d5a565b610ddf565b82525050565b610c9581610d8c565b82525050565b6000610ca78285610c75565b601482019150610cb78284610c75565b6014820191508190509392505050565b6000602082019050610cdc6000830184610c66565b92915050565b6000604082019050610cf76000830185610c66565b610d046020830184610c66565b9392505050565b6000602082019050610d206000830184610c8c565b92915050565b6000610d3182610d8c565b9150610d3c83610d8c565b925082821015610d4f57610d4e610e03565b5b828203905092915050565b6000610d6582610d6c565b9050919050565b600073ffffffffffffffffffffffffffffffffffffffff82169050919050565b6000819050919050565b6000610da182610d8c565b91507fffffffffffffffffffffffffffffffffffffffffffffffffffffffffffffffff821415610dd457610dd3610e03565b5b600182019050919050565b6000610dea82610df1565b9050919050565b6000610dfc82610e95565b9050919050565b7f4e487b7100000000000000000000000000000000000000000000000000000000600052601160045260246000fd5b7f4e487b7100000000000000000000000000000000000000000000000000000000600052603160045260246000fd5b7f4e487b7100000000000000000000000000000000000000000000000000000000600052603260045260246000fd5b600080fd5b60008160601b9050919050565b610eab81610d5a565b8114610eb657600080fd5b50565b610ec281610d8c565b8114610ecd57600080fd5b5056fe60c06040523480156200001157600080fd5b5060405162001167380380620011678339818101604052810190620000379190620000c4565b8173ffffffffffffffffffffffffffffffffffffffff1660808173ffffffffffffffffffffffffffffffffffffffff1660601b815250508073ffffffffffffffffffffffffffffffffffffffff1660a08173ffffffffffffffffffffffffffffffffffffffff1660601b8152505050506200015e565b600081519050620000be8162000144565b92915050565b60008060408385031215620000de57620000dd6200013f565b5b6000620000ee85828601620000ad565b92505060206200010185828601620000ad565b9150509250929050565b600062000118826200011f565b9050919050565b600073ffffffffffffffffffffffffffffffffffffffff82169050919050565b600080fd5b6200014f816200010b565b81146200015b57600080fd5b50565b60805160601c60a05160601c610fd96200018e600039600050506000818161059e015261072e0152610fd96000f3fe60806040526004361061007b5760003560e01c80639a7911741161004e5780639a79117414610109578063c95f9d0e14610120578063d004f0f714610149578063ffa86a7a146101725761007b565b80631bd8db03146100805780632c3c1e1f146100ab5780632fc078cb146100b557806388955a5d146100e0575b600080fd5b34801561008c57600080fd5b5061009561019d565b6040516100a29190610cbd565b60405180910390f35b6100b36101a6565b005b3480156100c157600080fd5b506100ca6102f9565b6040516100d79190610cbd565b60405180910390f35b3480156100ec57600080fd5b5061010760048036038101906101029190610bb0565b610303565b005b34801561011557600080fd5b5061011e6104a8565b005b34801561012c57600080fd5b5061014760048036038101906101429190610b70565b61056d565b005b34801561015557600080fd5b50610170600480360381019061016b9190610b30565b6106f5565b005b34801561017e57600080fd5b506101876109cf565b6040516101949190610cbd565b60405180910390f35b60006001905090565b6001600660003373ffffffffffffffffffffffffffffffffffffffff1673ffffffffffffffffffffffffffffffffffffffff16815260200190815260200160002060008282546101f69190610dd5565b925050819055506000808054905060016102109190610d4a565b905060005b6000805490508110156102c857816006600080848154811061023a57610239610eec565b5b9060005260206000200160009054906101000a900473ffffffffffffffffffffffffffffffffffffffff1673ffffffffffffffffffffffffffffffffffffffff1673ffffffffffffffffffffffffffffffffffffffff16815260200190815260200160002060008282546102ae9190610cf4565b9250508190555080806102c090610e45565b915050610215565b50807fca37fba7960ad9edfde4e1e1d21cf7696d8a082ed1226867e646a9ace3f259de60405160405180910390a250565b6000600454905090565b61030c826109d9565b610315816109d9565b61031d610a21565b816003600082825461032f9190610cf4565b9250508190555080600460008282546103489190610cf4565b9250508190555060045460035461035f9190610d7b565b60058190555060003373ffffffffffffffffffffffffffffffffffffffff16600160405161038c90610c68565b60006040518083038185875af1925050503d80600081146103c9576040519150601f19603f3d011682016040523d82523d6000602084013e6103ce565b606091505b5050905080610412576040517f08c379a000000000000000000000000000000000000000000000000000000000815260040161040990610c7d565b60405180910390fd5b6000339080600181540180825580915050600190039060005260206000200160009091909190916101000a81548173ffffffffffffffffffffffffffffffffffffffff021916908373ffffffffffffffffffffffffffffffffffffffff16021790555081837ffbbbcaaede8c02d4011f67f839ff21516a6f8ba0b4242e70f55b31b7ad3f099760405160405180910390a3505050565b6001600660003373ffffffffffffffffffffffffffffffffffffffff1673ffffffffffffffffffffffffffffffffffffffff168152602001908152602001600020541161056b57600660003373ffffffffffffffffffffffffffffffffffffffff1673ffffffffffffffffffffffffffffffffffffffff168152602001908152602001600020546040517f6d96d5350000000000000000000000000000000000000000000000000000000081526004016105629190610cbd565b60405180910390fd5b565b610576826109d9565b6000806003549050600060045490508373ffffffffffffffffffffffffffffffffffffffff167f000000000000000000000000000000000000000000000000000000000000000073ffffffffffffffffffffffffffffffffffffffff16141561061d5784600360008282546105eb9190610cf4565b925050819055506003546005546106029190610d4a565b600481905550600454816106169190610dd5565b925061065d565b846004600082825461062f9190610cf4565b925050819055506004546005546106469190610d4a565b6003819055506003548261065a9190610dd5565b92505b6000339080600181540180825580915050600190039060005260206000200160009091909190916101000a81548173ffffffffffffffffffffffffffffffffffffffff021916908373ffffffffffffffffffffffffffffffffffffffff16021790555082857feaef2f839ec84468e22b8f4072e1efdc55916b369ab4abbbc76613580cc4dabf60405160405180910390a35050505050565b6106fe816109d9565b610706610a72565b6000806003549050600060045490508473ffffffffffffffffffffffffffffffffffffffff167f000000000000000000000000000000000000000000000000000000000000000073ffffffffffffffffffffffffffffffffffffffff1614156107f15783600354116107ad576040517f08c379a00000000000000000000000000000000000000000000000000000000081526004016107a490610c9d565b60405180910390fd5b83600360008282546107bf9190610dd5565b925050819055506003546005546107d69190610d4a565b600481905550806004546107ea9190610dd5565b9250610875565b8360045411610835576040517f08c379a000000000000000000000000000000000000000000000000000000000815260040161082c90610c9d565b60405180910390fd5b83600460008282546108479190610dd5565b9250508190555060045460055461085e9190610d4a565b600381905550816003546108729190610dd5565b92505b60003373ffffffffffffffffffffffffffffffffffffffff168560405161089b90610c68565b60006040518083038185875af1925050503d80600081146108d8576040519150601f19603f3d011682016040523d82523d6000602084013e6108dd565b606091505b5050905080610921576040517f08c379a000000000000000000000000000000000000000000000000000000000815260040161091890610c7d565b60405180910390fd5b600260009054906101000a900473ffffffffffffffffffffffffffffffffffffffff1673ffffffffffffffffffffffffffffffffffffffff16600160009054906101000a900473ffffffffffffffffffffffffffffffffffffffff1673ffffffffffffffffffffffffffffffffffffffff167fe10e2cb44087d880df24049c1077c24f076a5889a386724037283e8f68ff90ce60405160405180910390a36109c76101a6565b505050505050565b6000600354905090565b60008111610a1e57806040517f836b5d0b000000000000000000000000000000000000000000000000000000008152600401610a159190610cbd565b60405180910390fd5b50565b600080805490501115610a70576000805490506040517f1d02305a000000000000000000000000000000000000000000000000000000008152600401610a679190610cbd565b60405180910390fd5b565b600060035411610abb576003546040517f1e6ed288000000000000000000000000000000000000000000000000000000008152600401610ab29190610cbd565b60405180910390fd5b600060045411610b04576004546040517f7e191aa5000000000000000000000000000000000000000000000000000000008152600401610afb9190610cbd565b60405180910390fd5b565b600081359050610b1581610f75565b92915050565b600081359050610b2a81610f8c565b92915050565b60008060408385031215610b4757610b46610f1b565b5b6000610b5585828601610b06565b9250506020610b6685828601610b1b565b9150509250929050565b60008060408385031215610b8757610b86610f1b565b5b6000610b9585828601610b1b565b9250506020610ba685828601610b06565b9150509250929050565b60008060408385031215610bc757610bc6610f1b565b5b6000610bd585828601610b1b565b9250506020610be685828601610b1b565b9150509250929050565b6000610bfd600b83610ce3565b9150610c0882610f20565b602082019050919050565b6000610c20601e83610ce3565b9150610c2b82610f49565b602082019050919050565b6000610c43600083610cd8565b9150610c4e82610f72565b600082019050919050565b610c6281610e3b565b82525050565b6000610c7382610c36565b9150819050919050565b60006020820190508181036000830152610c9681610bf0565b9050919050565b60006020820190508181036000830152610cb681610c13565b9050919050565b6000602082019050610cd26000830184610c59565b92915050565b600081905092915050565b600082825260208201905092915050565b6000610cff82610e3b565b9150610d0a83610e3b565b9250827fffffffffffffffffffffffffffffffffffffffffffffffffffffffffffffffff03821115610d3f57610d3e610e8e565b5b828201905092915050565b6000610d5582610e3b565b9150610d6083610e3b565b925082610d7057610d6f610ebd565b5b828204905092915050565b6000610d8682610e3b565b9150610d9183610e3b565b9250817fffffffffffffffffffffffffffffffffffffffffffffffffffffffffffffffff0483118215151615610dca57610dc9610e8e565b5b828202905092915050565b6000610de082610e3b565b9150610deb83610e3b565b925082821015610dfe57610dfd610e8e565b5b828203905092915050565b6000610e1482610e1b565b9050919050565b600073ffffffffffffffffffffffffffffffffffffffff82169050919050565b6000819050919050565b6000610e5082610e3b565b91507fffffffffffffffffffffffffffffffffffffffffffffffffffffffffffffffff821415610e8357610e82610e8e565b5b600182019050919050565b7f4e487b7100000000000000000000000000000000000000000000000000000000600052601160045260246000fd5b7f4e487b7100000000000000000000000000000000000000000000000000000000600052601260045260246000fd5b7f4e487b7100000000000000000000000000000000000000000000000000000000600052603260045260246000fd5b600080fd5b7f43616c6c206661696c6564000000000000000000000000000000000000000000600082015250565b7f4e6f7420456e6f756768206c697175696469747920666f7220746f6b656e0000600082015250565b50565b610f7e81610e09565b8114610f8957600080fd5b50565b610f9581610e3b565b8114610fa057600080fd5b5056fea26469706673582212206b0c633309de16239d8770321c9fec88a0e945dd1ff661d9e5908c8d728f367b64736f6c63430008070033a2646970667358221220b3ad82aee42fc8c39b81dfa28bbaf34f0f354133c8e1795ab6535552b8f45c7764736f6c63430008070033",
  "linkReferences": {},
  "deployedLinkReferences": {}
}