{
  "_format": "hh-sol-artifact-1",
  "contractName": "WinPair",
  "sourceName": "contracts/WinPair.sol",
  "abi": [
    {
      "inputs": [
        {
          "internalType": "address",
          "name": "tokenA",
          "type": "address"
        },
        {
          "internalType": "address",
          "name": "tokenB",
          "type": "address"
        }
      ],
      "stateMutability": "nonpayable",
      "type": "constructor"
    },
    {
      "inputs": [],
      "name": "WinPair__InsufficientBalance",
      "type": "error"
    },
    {
      "inputs": [],
      "name": "WinPair__LiquidityProvidersExist",
      "type": "error"
    },
    {
      "inputs": [
        {
          "internalType": "uint256",
          "name": "amount",
          "type": "uint256"
        }
      ],
      "name": "WinPair__ZeroAmountDeposited",
      "type": "error"
    },
    {
      "inputs": [
        {
          "internalType": "uint256",
          "name": "liquidity",
          "type": "uint256"
        }
      ],
      "name": "WinPair__ZeroLiquidity",
      "type": "error"
    },
    {
      "anonymous": false,
      "inputs": [
        {
          "indexed": true,
          "internalType": "address",
          "name": "tokenA",
          "type": "address"
        },
        {
          "indexed": true,
          "internalType": "address",
          "name": "tokenB",
          "type": "address"
        }
      ],
      "name": "balancesUpdated",
      "type": "event"
    },
    {
      "anonymous": false,
      "inputs": [
        {
          "indexed": true,
          "internalType": "uint256",
          "name": "amountA",
          "type": "uint256"
        },
        {
          "indexed": true,
          "internalType": "uint256",
          "name": "amountB",
          "type": "uint256"
        }
      ],
      "name": "liquidityAdded",
      "type": "event"
    },
    {
      "anonymous": false,
      "inputs": [
        {
          "indexed": true,
          "internalType": "uint256",
          "name": "amountA",
          "type": "uint256"
        },
        {
          "indexed": true,
          "internalType": "uint256",
          "name": "amountB",
          "type": "uint256"
        }
      ],
      "name": "liquiditySet",
      "type": "event"
    },
    {
      "anonymous": false,
      "inputs": [
        {
          "indexed": true,
          "internalType": "uint256",
          "name": "amount",
          "type": "uint256"
        }
      ],
      "name": "paidLiquidityProviders",
      "type": "event"
    },
    {
      "anonymous": false,
      "inputs": [
        {
          "indexed": true,
          "internalType": "address",
          "name": "tokenA",
          "type": "address"
        },
        {
          "indexed": true,
          "internalType": "address",
          "name": "tokenB",
          "type": "address"
        }
      ],
      "name": "swappedTokens",
      "type": "event"
    },
    {
      "inputs": [
        {
          "internalType": "uint256",
          "name": "_amountA",
          "type": "uint256"
        },
        {
          "internalType": "uint256",
          "name": "_amountB",
          "type": "uint256"
        }
      ],
      "name": "addLiquidity",
      "outputs": [],
      "stateMutability": "nonpayable",
      "type": "function"
    },
    {
      "inputs": [
        {
          "internalType": "address",
          "name": "account",
          "type": "address"
        }
      ],
      "name": "checkBalanceOfUser",
      "outputs": [],
      "stateMutability": "view",
      "type": "function"
    },
    {
      "inputs": [],
      "name": "getTradingFee",
      "outputs": [
        {
          "internalType": "uint256",
          "name": "",
          "type": "uint256"
        }
      ],
      "stateMutability": "view",
      "type": "function"
    },
    {
      "inputs": [],
      "name": "payLiquidityProviders",
      "outputs": [],
      "stateMutability": "payable",
      "type": "function"
    },
    {
      "inputs": [],
      "name": "returnLiquidityTokenA",
      "outputs": [
        {
          "internalType": "uint256",
          "name": "",
          "type": "uint256"
        }
      ],
      "stateMutability": "view",
      "type": "function"
    },
    {
      "inputs": [],
      "name": "returnLiquidityTokenB",
      "outputs": [
        {
          "internalType": "uint256",
          "name": "",
          "type": "uint256"
        }
      ],
      "stateMutability": "view",
      "type": "function"
    },
    {
      "inputs": [
        {
          "internalType": "uint256",
          "name": "_amountA",
          "type": "uint256"
        },
        {
          "internalType": "uint256",
          "name": "_amountB",
          "type": "uint256"
        }
      ],
      "name": "setLiquidity",
      "outputs": [],
      "stateMutability": "nonpayable",
      "type": "function"
    },
    {
      "inputs": [
        {
          "internalType": "address",
          "name": "_tokenToBeSwapped",
          "type": "address"
        },
        {
          "internalType": "uint256",
          "name": "_amountOfToken",
          "type": "uint256"
        }
      ],
      "name": "swap",
      "outputs": [
        {
          "internalType": "uint256",
          "name": "",
          "type": "uint256"
        }
      ],
      "stateMutability": "nonpayable",
      "type": "function"
    }
  ],
  "bytecode": "0x60c06040523480156200001157600080fd5b5060405162001103380380620011038339818101604052810190620000379190620000c4565b8173ffffffffffffffffffffffffffffffffffffffff1660808173ffffffffffffffffffffffffffffffffffffffff1660601b815250508073ffffffffffffffffffffffffffffffffffffffff1660a08173ffffffffffffffffffffffffffffffffffffffff1660601b8152505050506200015e565b600081519050620000be8162000144565b92915050565b60008060408385031215620000de57620000dd6200013f565b5b6000620000ee85828601620000ad565b92505060206200010185828601620000ad565b9150509250929050565b600062000118826200011f565b9050919050565b600073ffffffffffffffffffffffffffffffffffffffff82169050919050565b600080fd5b6200014f816200010b565b81146200015b57600080fd5b50565b60805160601c60a05160601c610f646200019f600039600081816105f701526106a50152600081816105590152818161059601526107060152610f646000f3fe60806040526004361061007b5760003560e01c806388955a5d1161004e57806388955a5d146101095780639cd441da14610132578063d004f0f71461015b578063ffa86a7a146101985761007b565b80631bd8db03146100805780632c3c1e1f146100ab5780632fc078cb146100b55780636b1c5d24146100e0575b600080fd5b34801561008c57600080fd5b506100956101c3565b6040516100a29190610c71565b60405180910390f35b6100b36101cc565b005b3480156100c157600080fd5b506100ca6101ce565b6040516100d79190610c71565b60405180910390f35b3480156100ec57600080fd5b5061010760048036038101906101029190610b3a565b6101d8565b005b34801561011557600080fd5b50610130600480360381019061012b9190610ba7565b610254565b005b34801561013e57600080fd5b5061015960048036038101906101549190610ba7565b61032d565b005b34801561016757600080fd5b50610182600480360381019061017d9190610b67565b6103fe565b60405161018f9190610c71565b60405180910390f35b3480156101a457600080fd5b506101ad6109a3565b6040516101ba9190610c71565b60405180910390f35b60006001905090565b565b6000600454905090565b6001600760008373ffffffffffffffffffffffffffffffffffffffff1673ffffffffffffffffffffffffffffffffffffffff1681526020019081526020016000205411610251576040517f2f348e9a00000000000000000000000000000000000000000000000000000000815260040160405180910390fd5b50565b61025e82826109ad565b610266610a3b565b81600360008282546102789190610ca8565b9250508190555080600460008282546102919190610ca8565b925050819055506000339080600181540180825580915050600190039060005260206000200160009091909190916101000a81548173ffffffffffffffffffffffffffffffffffffffff021916908373ffffffffffffffffffffffffffffffffffffffff16021790555080827ffbbbcaaede8c02d4011f67f839ff21516a6f8ba0b4242e70f55b31b7ad3f099760405160405180910390a35050565b61033782826109ad565b81600360008282546103499190610ca8565b9250508190555080600460008282546103629190610ca8565b925050819055506000339080600181540180825580915050600190039060005260206000200160009091909190916101000a81548173ffffffffffffffffffffffffffffffffffffffff021916908373ffffffffffffffffffffffffffffffffffffffff16021790555080827feaef2f839ec84468e22b8f4072e1efdc55916b369ab4abbbc76613580cc4dabf60405160405180910390a35050565b6000610408610a7c565b610411336101d8565b6001600760003373ffffffffffffffffffffffffffffffffffffffff1673ffffffffffffffffffffffffffffffffffffffff16815260200190815260200160002060008282546104619190610d89565b9250508190555060005b60008054905081101561052f57600080549050600161048a9190610cfe565b600760008084815481106104a1576104a0610ea0565b5b9060005260206000200160009054906101000a900473ffffffffffffffffffffffffffffffffffffffff1673ffffffffffffffffffffffffffffffffffffffff1673ffffffffffffffffffffffffffffffffffffffff16815260200190815260200160002060008282546105159190610ca8565b92505081905550808061052790610df9565b91505061046b565b50600060035490506000600454905060008573ffffffffffffffffffffffffffffffffffffffff167f000000000000000000000000000000000000000000000000000000000000000073ffffffffffffffffffffffffffffffffffffffff1614156106a3577f0000000000000000000000000000000000000000000000000000000000000000600160006101000a81548173ffffffffffffffffffffffffffffffffffffffff021916908373ffffffffffffffffffffffffffffffffffffffff1602179055507f0000000000000000000000000000000000000000000000000000000000000000600260006101000a81548173ffffffffffffffffffffffffffffffffffffffff021916908373ffffffffffffffffffffffffffffffffffffffff16021790555084600360008282546106689190610d89565b92505081905550828260035461067e9190610d2f565b6106889190610cfe565b6004819055506004548261069c9190610d89565b90506107ae565b7f0000000000000000000000000000000000000000000000000000000000000000600160006101000a81548173ffffffffffffffffffffffffffffffffffffffff021916908373ffffffffffffffffffffffffffffffffffffffff1602179055507f0000000000000000000000000000000000000000000000000000000000000000600260006101000a81548173ffffffffffffffffffffffffffffffffffffffff021916908373ffffffffffffffffffffffffffffffffffffffff16021790555084600460008282546107779190610d89565b92505081905550818360045461078d9190610d2f565b6107979190610cfe565b600381905550600354836107ab9190610d89565b90505b60003373ffffffffffffffffffffffffffffffffffffffff16866040516107d490610c3c565b60006040518083038185875af1925050503d8060008114610811576040519150601f19603f3d011682016040523d82523d6000602084013e610816565b606091505b505090508061085a576040517f08c379a000000000000000000000000000000000000000000000000000000000815260040161085190610c51565b60405180910390fd5b600260009054906101000a900473ffffffffffffffffffffffffffffffffffffffff1673ffffffffffffffffffffffffffffffffffffffff16600160009054906101000a900473ffffffffffffffffffffffffffffffffffffffff1673ffffffffffffffffffffffffffffffffffffffff167fe10e2cb44087d880df24049c1077c24f076a5889a386724037283e8f68ff90ce60405160405180910390a3600260009054906101000a900473ffffffffffffffffffffffffffffffffffffffff1673ffffffffffffffffffffffffffffffffffffffff16600160009054906101000a900473ffffffffffffffffffffffffffffffffffffffff1673ffffffffffffffffffffffffffffffffffffffff167fb02023df1c034ab26c319ec8793cec4faa5b2b8b5b0c19cb27be49736aa0ffed60405160405180910390a38194505050505092915050565b6000600354905090565b600082116109f257816040517f836b5d0b0000000000000000000000000000000000000000000000000000000081526004016109e99190610c71565b60405180910390fd5b60008111610a3757806040517f836b5d0b000000000000000000000000000000000000000000000000000000008152600401610a2e9190610c71565b60405180910390fd5b5050565b600080805490501115610a7a576040517f8368ba9400000000000000000000000000000000000000000000000000000000815260040160405180910390fd5b565b600060035411610ac5576003546040517fcb91fd84000000000000000000000000000000000000000000000000000000008152600401610abc9190610c71565b60405180910390fd5b600060045411610b0e576004546040517fcb91fd84000000000000000000000000000000000000000000000000000000008152600401610b059190610c71565b60405180910390fd5b565b600081359050610b1f81610f00565b92915050565b600081359050610b3481610f17565b92915050565b600060208284031215610b5057610b4f610ecf565b5b6000610b5e84828501610b10565b91505092915050565b60008060408385031215610b7e57610b7d610ecf565b5b6000610b8c85828601610b10565b9250506020610b9d85828601610b25565b9150509250929050565b60008060408385031215610bbe57610bbd610ecf565b5b6000610bcc85828601610b25565b9250506020610bdd85828601610b25565b9150509250929050565b6000610bf4600b83610c97565b9150610bff82610ed4565b602082019050919050565b6000610c17600083610c8c565b9150610c2282610efd565b600082019050919050565b610c3681610def565b82525050565b6000610c4782610c0a565b9150819050919050565b60006020820190508181036000830152610c6a81610be7565b9050919050565b6000602082019050610c866000830184610c2d565b92915050565b600081905092915050565b600082825260208201905092915050565b6000610cb382610def565b9150610cbe83610def565b9250827fffffffffffffffffffffffffffffffffffffffffffffffffffffffffffffffff03821115610cf357610cf2610e42565b5b828201905092915050565b6000610d0982610def565b9150610d1483610def565b925082610d2457610d23610e71565b5b828204905092915050565b6000610d3a82610def565b9150610d4583610def565b9250817fffffffffffffffffffffffffffffffffffffffffffffffffffffffffffffffff0483118215151615610d7e57610d7d610e42565b5b828202905092915050565b6000610d9482610def565b9150610d9f83610def565b925082821015610db257610db1610e42565b5b828203905092915050565b6000610dc882610dcf565b9050919050565b600073ffffffffffffffffffffffffffffffffffffffff82169050919050565b6000819050919050565b6000610e0482610def565b91507fffffffffffffffffffffffffffffffffffffffffffffffffffffffffffffffff821415610e3757610e36610e42565b5b600182019050919050565b7f4e487b7100000000000000000000000000000000000000000000000000000000600052601160045260246000fd5b7f4e487b7100000000000000000000000000000000000000000000000000000000600052601260045260246000fd5b7f4e487b7100000000000000000000000000000000000000000000000000000000600052603260045260246000fd5b600080fd5b7f43616c6c206661696c6564000000000000000000000000000000000000000000600082015250565b50565b610f0981610dbd565b8114610f1457600080fd5b50565b610f2081610def565b8114610f2b57600080fd5b5056fea264697066735822122098ef594d1bca1bd517c6206c758609db479078cd98a32e1171901a17e0c0ea3f64736f6c63430008070033",
  "linkReferences": {},
  "deployedLinkReferences": {}
}