{
  "_format": "hh-sol-artifact-1",
  "contractName": "WinPair",
  "sourceName": "contracts/WinPair.sol",
  "abi": [
    {
      "inputs": [
        {
          "internalType": "address",
          "name": "tokenA",
          "type": "address"
        },
        {
          "internalType": "address",
          "name": "tokenB",
          "type": "address"
        }
      ],
      "stateMutability": "nonpayable",
      "type": "constructor"
    },
    {
      "inputs": [
        {
          "internalType": "uint256",
          "name": "balance",
          "type": "uint256"
        }
      ],
      "name": "WinPair__InsufficientBalance",
      "type": "error"
    },
    {
      "inputs": [
        {
          "internalType": "uint256",
          "name": "providers",
          "type": "uint256"
        }
      ],
      "name": "WinPair__LiquidityProvidersExist",
      "type": "error"
    },
    {
      "inputs": [
        {
          "internalType": "uint256",
          "name": "balance",
          "type": "uint256"
        }
      ],
      "name": "WinPair__NotEnoughLiquidityA",
      "type": "error"
    },
    {
      "inputs": [
        {
          "internalType": "uint256",
          "name": "balance",
          "type": "uint256"
        }
      ],
      "name": "WinPair__NotEnoughLiquidityB",
      "type": "error"
    },
    {
      "inputs": [
        {
          "internalType": "uint256",
          "name": "amount",
          "type": "uint256"
        }
      ],
      "name": "WinPair__ZeroAmountDeposited",
      "type": "error"
    },
    {
      "anonymous": false,
      "inputs": [
        {
          "indexed": true,
          "internalType": "uint256",
          "name": "amountA",
          "type": "uint256"
        },
        {
          "indexed": true,
          "internalType": "uint256",
          "name": "amountB",
          "type": "uint256"
        }
      ],
      "name": "liquidityAdded",
      "type": "event"
    },
    {
      "anonymous": false,
      "inputs": [
        {
          "indexed": true,
          "internalType": "uint256",
          "name": "amountA",
          "type": "uint256"
        },
        {
          "indexed": true,
          "internalType": "uint256",
          "name": "amountB",
          "type": "uint256"
        }
      ],
      "name": "liquiditySet",
      "type": "event"
    },
    {
      "anonymous": false,
      "inputs": [
        {
          "indexed": true,
          "internalType": "uint256",
          "name": "amount",
          "type": "uint256"
        }
      ],
      "name": "paidLiquidityProviders",
      "type": "event"
    },
    {
      "anonymous": false,
      "inputs": [
        {
          "indexed": true,
          "internalType": "address",
          "name": "tokenA",
          "type": "address"
        },
        {
          "indexed": true,
          "internalType": "address",
          "name": "tokenB",
          "type": "address"
        }
      ],
      "name": "swappedTokens",
      "type": "event"
    },
    {
      "inputs": [
        {
          "internalType": "uint256",
          "name": "_amount",
          "type": "uint256"
        },
        {
          "internalType": "address",
          "name": "_token",
          "type": "address"
        }
      ],
      "name": "addLiquidity",
      "outputs": [],
      "stateMutability": "nonpayable",
      "type": "function"
    },
    {
      "inputs": [],
      "name": "checkBalanceOfUser",
      "outputs": [],
      "stateMutability": "view",
      "type": "function"
    },
    {
      "inputs": [],
      "name": "getAmountOtherToken",
      "outputs": [
        {
          "internalType": "uint256",
          "name": "",
          "type": "uint256"
        }
      ],
      "stateMutability": "view",
      "type": "function"
    },
    {
      "inputs": [],
      "name": "getLiquidityTokenA",
      "outputs": [
        {
          "internalType": "uint256",
          "name": "",
          "type": "uint256"
        }
      ],
      "stateMutability": "view",
      "type": "function"
    },
    {
      "inputs": [],
      "name": "getLiquidityTokenB",
      "outputs": [
        {
          "internalType": "uint256",
          "name": "",
          "type": "uint256"
        }
      ],
      "stateMutability": "view",
      "type": "function"
    },
    {
      "inputs": [],
      "name": "getTradingFee",
      "outputs": [
        {
          "internalType": "uint256",
          "name": "",
          "type": "uint256"
        }
      ],
      "stateMutability": "pure",
      "type": "function"
    },
    {
      "inputs": [],
      "name": "payLiquidityProviders",
      "outputs": [],
      "stateMutability": "payable",
      "type": "function"
    },
    {
      "inputs": [
        {
          "internalType": "uint256",
          "name": "_amountA",
          "type": "uint256"
        },
        {
          "internalType": "uint256",
          "name": "_amountB",
          "type": "uint256"
        }
      ],
      "name": "setLiquidity",
      "outputs": [],
      "stateMutability": "nonpayable",
      "type": "function"
    },
    {
      "inputs": [
        {
          "internalType": "address",
          "name": "_tokenToBeSwapped",
          "type": "address"
        },
        {
          "internalType": "uint256",
          "name": "_amountOfToken",
          "type": "uint256"
        }
      ],
      "name": "swap",
      "outputs": [],
      "stateMutability": "nonpayable",
      "type": "function"
    }
  ],
  "bytecode": "0x60c06040523480156200001157600080fd5b50604051620011b5380380620011b58339818101604052810190620000379190620000c4565b8173ffffffffffffffffffffffffffffffffffffffff1660808173ffffffffffffffffffffffffffffffffffffffff1660601b815250508073ffffffffffffffffffffffffffffffffffffffff1660a08173ffffffffffffffffffffffffffffffffffffffff1660601b8152505050506200015e565b600081519050620000be8162000144565b92915050565b60008060408385031215620000de57620000dd6200013f565b5b6000620000ee85828601620000ad565b92505060206200010185828601620000ad565b9150509250929050565b600062000118826200011f565b9050919050565b600073ffffffffffffffffffffffffffffffffffffffff82169050919050565b600080fd5b6200014f816200010b565b81146200015b57600080fd5b50565b60805160601c60a05160601c6110276200018e60003960005050600081816105e7015261077f01526110276000f3fe6080604052600436106100865760003560e01c8063807de16011610059578063807de1601461011657806388955a5d146101415780639a7911741461016a578063c95f9d0e14610181578063d004f0f7146101aa57610086565b80631bd8db031461008b5780632c3c1e1f146100b657806358033f3f146100c0578063735b08c4146100eb575b600080fd5b34801561009757600080fd5b506100a06101d3565b6040516100ad9190610d0b565b60405180910390f35b6100be6101dc565b005b3480156100cc57600080fd5b506100d561032f565b6040516100e29190610d0b565b60405180910390f35b3480156100f757600080fd5b50610100610339565b60405161010d9190610d0b565b60405180910390f35b34801561012257600080fd5b5061012b610343565b6040516101389190610d0b565b60405180910390f35b34801561014d57600080fd5b5061016860048036038101906101639190610bfe565b61034d565b005b34801561017657600080fd5b5061017f6104f2565b005b34801561018d57600080fd5b506101a860048036038101906101a39190610bbe565b6105b7565b005b3480156101b657600080fd5b506101d160048036038101906101cc9190610b7e565b610747565b005b60006001905090565b6001600760003373ffffffffffffffffffffffffffffffffffffffff1673ffffffffffffffffffffffffffffffffffffffff168152602001908152602001600020600082825461022c9190610e23565b925050819055506000808054905060016102469190610d98565b905060005b6000805490508110156102fe5781600760008084815481106102705761026f610f3a565b5b9060005260206000200160009054906101000a900473ffffffffffffffffffffffffffffffffffffffff1673ffffffffffffffffffffffffffffffffffffffff1673ffffffffffffffffffffffffffffffffffffffff16815260200190815260200160002060008282546102e49190610d42565b9250508190555080806102f690610e93565b91505061024b565b50807fca37fba7960ad9edfde4e1e1d21cf7696d8a082ed1226867e646a9ace3f259de60405160405180910390a250565b6000600654905090565b6000600354905090565b6000600454905090565b61035682610a27565b61035f81610a27565b610367610a6f565b81600360008282546103799190610d42565b9250508190555080600460008282546103929190610d42565b925050819055506004546003546103a99190610dc9565b60058190555060003373ffffffffffffffffffffffffffffffffffffffff1660016040516103d690610cb6565b60006040518083038185875af1925050503d8060008114610413576040519150601f19603f3d011682016040523d82523d6000602084013e610418565b606091505b505090508061045c576040517f08c379a000000000000000000000000000000000000000000000000000000000815260040161045390610ccb565b60405180910390fd5b6000339080600181540180825580915050600190039060005260206000200160009091909190916101000a81548173ffffffffffffffffffffffffffffffffffffffff021916908373ffffffffffffffffffffffffffffffffffffffff16021790555081837ffbbbcaaede8c02d4011f67f839ff21516a6f8ba0b4242e70f55b31b7ad3f099760405160405180910390a3505050565b6001600760003373ffffffffffffffffffffffffffffffffffffffff1673ffffffffffffffffffffffffffffffffffffffff16815260200190815260200160002054116105b557600760003373ffffffffffffffffffffffffffffffffffffffff1673ffffffffffffffffffffffffffffffffffffffff168152602001908152602001600020546040517f6d96d5350000000000000000000000000000000000000000000000000000000081526004016105ac9190610d0b565b60405180910390fd5b565b6105c082610a27565b60006003549050600060045490508273ffffffffffffffffffffffffffffffffffffffff167f000000000000000000000000000000000000000000000000000000000000000073ffffffffffffffffffffffffffffffffffffffff16141561066a5783600360008282546106349190610d42565b9250508190555060035460055461064b9190610d98565b6004819055506004548161065f9190610e23565b6006819055506106ae565b836004600082825461067c9190610d42565b925050819055506004546005546106939190610d98565b600381905550600354826106a79190610e23565b6006819055505b6000339080600181540180825580915050600190039060005260206000200160009091909190916101000a81548173ffffffffffffffffffffffffffffffffffffffff021916908373ffffffffffffffffffffffffffffffffffffffff160217905550600654847feaef2f839ec84468e22b8f4072e1efdc55916b369ab4abbbc76613580cc4dabf60405160405180910390a350505050565b61075081610a27565b610758610ac0565b60006003549050600060045490508373ffffffffffffffffffffffffffffffffffffffff167f000000000000000000000000000000000000000000000000000000000000000073ffffffffffffffffffffffffffffffffffffffff1614156108465782600354116107fe576040517f08c379a00000000000000000000000000000000000000000000000000000000081526004016107f590610ceb565b60405180910390fd5b82600360008282546108109190610e23565b925050819055506003546005546108279190610d98565b6004819055508060045461083b9190610e23565b6006819055506108ce565b826004541161088a576040517f08c379a000000000000000000000000000000000000000000000000000000000815260040161088190610ceb565b60405180910390fd5b826004600082825461089c9190610e23565b925050819055506004546005546108b39190610d98565b600381905550816003546108c79190610e23565b6006819055505b60003373ffffffffffffffffffffffffffffffffffffffff16846040516108f490610cb6565b60006040518083038185875af1925050503d8060008114610931576040519150601f19603f3d011682016040523d82523d6000602084013e610936565b606091505b505090508061097a576040517f08c379a000000000000000000000000000000000000000000000000000000000815260040161097190610ccb565b60405180910390fd5b600260009054906101000a900473ffffffffffffffffffffffffffffffffffffffff1673ffffffffffffffffffffffffffffffffffffffff16600160009054906101000a900473ffffffffffffffffffffffffffffffffffffffff1673ffffffffffffffffffffffffffffffffffffffff167fe10e2cb44087d880df24049c1077c24f076a5889a386724037283e8f68ff90ce60405160405180910390a3610a206101dc565b5050505050565b60008111610a6c57806040517f836b5d0b000000000000000000000000000000000000000000000000000000008152600401610a639190610d0b565b60405180910390fd5b50565b600080805490501115610abe576000805490506040517f1d02305a000000000000000000000000000000000000000000000000000000008152600401610ab59190610d0b565b60405180910390fd5b565b600060035411610b09576003546040517f1e6ed288000000000000000000000000000000000000000000000000000000008152600401610b009190610d0b565b60405180910390fd5b600060045411610b52576004546040517f7e191aa5000000000000000000000000000000000000000000000000000000008152600401610b499190610d0b565b60405180910390fd5b565b600081359050610b6381610fc3565b92915050565b600081359050610b7881610fda565b92915050565b60008060408385031215610b9557610b94610f69565b5b6000610ba385828601610b54565b9250506020610bb485828601610b69565b9150509250929050565b60008060408385031215610bd557610bd4610f69565b5b6000610be385828601610b69565b9250506020610bf485828601610b54565b9150509250929050565b60008060408385031215610c1557610c14610f69565b5b6000610c2385828601610b69565b9250506020610c3485828601610b69565b9150509250929050565b6000610c4b600b83610d31565b9150610c5682610f6e565b602082019050919050565b6000610c6e601e83610d31565b9150610c7982610f97565b602082019050919050565b6000610c91600083610d26565b9150610c9c82610fc0565b600082019050919050565b610cb081610e89565b82525050565b6000610cc182610c84565b9150819050919050565b60006020820190508181036000830152610ce481610c3e565b9050919050565b60006020820190508181036000830152610d0481610c61565b9050919050565b6000602082019050610d206000830184610ca7565b92915050565b600081905092915050565b600082825260208201905092915050565b6000610d4d82610e89565b9150610d5883610e89565b9250827fffffffffffffffffffffffffffffffffffffffffffffffffffffffffffffffff03821115610d8d57610d8c610edc565b5b828201905092915050565b6000610da382610e89565b9150610dae83610e89565b925082610dbe57610dbd610f0b565b5b828204905092915050565b6000610dd482610e89565b9150610ddf83610e89565b9250817fffffffffffffffffffffffffffffffffffffffffffffffffffffffffffffffff0483118215151615610e1857610e17610edc565b5b828202905092915050565b6000610e2e82610e89565b9150610e3983610e89565b925082821015610e4c57610e4b610edc565b5b828203905092915050565b6000610e6282610e69565b9050919050565b600073ffffffffffffffffffffffffffffffffffffffff82169050919050565b6000819050919050565b6000610e9e82610e89565b91507fffffffffffffffffffffffffffffffffffffffffffffffffffffffffffffffff821415610ed157610ed0610edc565b5b600182019050919050565b7f4e487b7100000000000000000000000000000000000000000000000000000000600052601160045260246000fd5b7f4e487b7100000000000000000000000000000000000000000000000000000000600052601260045260246000fd5b7f4e487b7100000000000000000000000000000000000000000000000000000000600052603260045260246000fd5b600080fd5b7f43616c6c206661696c6564000000000000000000000000000000000000000000600082015250565b7f4e6f7420456e6f756768206c697175696469747920666f7220746f6b656e0000600082015250565b50565b610fcc81610e57565b8114610fd757600080fd5b50565b610fe381610e89565b8114610fee57600080fd5b5056fea2646970667358221220bc9d10cbdcf6bb39d214b3c07ce86324e35e2049b137831816f1710b99cb85ff64736f6c63430008070033",
  "linkReferences": {},
  "deployedLinkReferences": {}
}