{
  "_format": "hh-sol-artifact-1",
  "contractName": "WinPair",
  "sourceName": "contracts/WinPair.sol",
  "abi": [
    {
      "inputs": [
        {
          "internalType": "address",
          "name": "tokenA",
          "type": "address"
        },
        {
          "internalType": "address",
          "name": "tokenB",
          "type": "address"
        }
      ],
      "stateMutability": "nonpayable",
      "type": "constructor"
    },
    {
      "inputs": [
        {
          "internalType": "uint256",
          "name": "balance",
          "type": "uint256"
        }
      ],
      "name": "WinPair__InsufficientBalance",
      "type": "error"
    },
    {
      "inputs": [
        {
          "internalType": "uint256",
          "name": "providers",
          "type": "uint256"
        }
      ],
      "name": "WinPair__LiquidityProvidersExist",
      "type": "error"
    },
    {
      "inputs": [
        {
          "internalType": "uint256",
          "name": "balance",
          "type": "uint256"
        }
      ],
      "name": "WinPair__NotEnoughLiquidityA",
      "type": "error"
    },
    {
      "inputs": [
        {
          "internalType": "uint256",
          "name": "balance",
          "type": "uint256"
        }
      ],
      "name": "WinPair__NotEnoughLiquidityB",
      "type": "error"
    },
    {
      "inputs": [
        {
          "internalType": "uint256",
          "name": "amount",
          "type": "uint256"
        }
      ],
      "name": "WinPair__ZeroAmountDeposited",
      "type": "error"
    },
    {
      "anonymous": false,
      "inputs": [
        {
          "indexed": true,
          "internalType": "uint256",
          "name": "amountA",
          "type": "uint256"
        },
        {
          "indexed": true,
          "internalType": "uint256",
          "name": "amountB",
          "type": "uint256"
        }
      ],
      "name": "liquidityAdded",
      "type": "event"
    },
    {
      "anonymous": false,
      "inputs": [
        {
          "indexed": true,
          "internalType": "uint256",
          "name": "amountA",
          "type": "uint256"
        },
        {
          "indexed": true,
          "internalType": "uint256",
          "name": "amountB",
          "type": "uint256"
        }
      ],
      "name": "liquiditySet",
      "type": "event"
    },
    {
      "anonymous": false,
      "inputs": [
        {
          "indexed": true,
          "internalType": "uint256",
          "name": "amount",
          "type": "uint256"
        }
      ],
      "name": "paidLiquidityProviders",
      "type": "event"
    },
    {
      "anonymous": false,
      "inputs": [
        {
          "indexed": true,
          "internalType": "address",
          "name": "tokenA",
          "type": "address"
        },
        {
          "indexed": true,
          "internalType": "address",
          "name": "tokenB",
          "type": "address"
        }
      ],
      "name": "swappedTokens",
      "type": "event"
    },
    {
      "inputs": [
        {
          "internalType": "uint256",
          "name": "_amount",
          "type": "uint256"
        },
        {
          "internalType": "address",
          "name": "_token",
          "type": "address"
        }
      ],
      "name": "addLiquidity",
      "outputs": [],
      "stateMutability": "nonpayable",
      "type": "function"
    },
    {
      "inputs": [],
      "name": "checkBalanceOfUser",
      "outputs": [],
      "stateMutability": "view",
      "type": "function"
    },
    {
      "inputs": [],
      "name": "getTradingFee",
      "outputs": [
        {
          "internalType": "uint256",
          "name": "",
          "type": "uint256"
        }
      ],
      "stateMutability": "pure",
      "type": "function"
    },
    {
      "inputs": [],
      "name": "payLiquidityProviders",
      "outputs": [],
      "stateMutability": "payable",
      "type": "function"
    },
    {
      "inputs": [],
      "name": "returnLiquidityTokenA",
      "outputs": [
        {
          "internalType": "uint256",
          "name": "",
          "type": "uint256"
        }
      ],
      "stateMutability": "view",
      "type": "function"
    },
    {
      "inputs": [],
      "name": "returnLiquidityTokenB",
      "outputs": [
        {
          "internalType": "uint256",
          "name": "",
          "type": "uint256"
        }
      ],
      "stateMutability": "view",
      "type": "function"
    },
    {
      "inputs": [
        {
          "internalType": "uint256",
          "name": "_amountA",
          "type": "uint256"
        },
        {
          "internalType": "uint256",
          "name": "_amountB",
          "type": "uint256"
        }
      ],
      "name": "setLiquidity",
      "outputs": [],
      "stateMutability": "nonpayable",
      "type": "function"
    },
    {
      "inputs": [
        {
          "internalType": "address",
          "name": "_tokenToBeSwapped",
          "type": "address"
        },
        {
          "internalType": "uint256",
          "name": "_amountOfToken",
          "type": "uint256"
        }
      ],
      "name": "swap",
      "outputs": [],
      "stateMutability": "nonpayable",
      "type": "function"
    }
  ],
  "bytecode": "0x60c06040523480156200001157600080fd5b5060405162001167380380620011678339818101604052810190620000379190620000c4565b8173ffffffffffffffffffffffffffffffffffffffff1660808173ffffffffffffffffffffffffffffffffffffffff1660601b815250508073ffffffffffffffffffffffffffffffffffffffff1660a08173ffffffffffffffffffffffffffffffffffffffff1660601b8152505050506200015e565b600081519050620000be8162000144565b92915050565b60008060408385031215620000de57620000dd6200013f565b5b6000620000ee85828601620000ad565b92505060206200010185828601620000ad565b9150509250929050565b600062000118826200011f565b9050919050565b600073ffffffffffffffffffffffffffffffffffffffff82169050919050565b600080fd5b6200014f816200010b565b81146200015b57600080fd5b50565b60805160601c60a05160601c610fd96200018e600039600050506000818161059e015261072e0152610fd96000f3fe60806040526004361061007b5760003560e01c80639a7911741161004e5780639a79117414610109578063c95f9d0e14610120578063d004f0f714610149578063ffa86a7a146101725761007b565b80631bd8db03146100805780632c3c1e1f146100ab5780632fc078cb146100b557806388955a5d146100e0575b600080fd5b34801561008c57600080fd5b5061009561019d565b6040516100a29190610cbd565b60405180910390f35b6100b36101a6565b005b3480156100c157600080fd5b506100ca6102f9565b6040516100d79190610cbd565b60405180910390f35b3480156100ec57600080fd5b5061010760048036038101906101029190610bb0565b610303565b005b34801561011557600080fd5b5061011e6104a8565b005b34801561012c57600080fd5b5061014760048036038101906101429190610b70565b61056d565b005b34801561015557600080fd5b50610170600480360381019061016b9190610b30565b6106f5565b005b34801561017e57600080fd5b506101876109cf565b6040516101949190610cbd565b60405180910390f35b60006001905090565b6001600660003373ffffffffffffffffffffffffffffffffffffffff1673ffffffffffffffffffffffffffffffffffffffff16815260200190815260200160002060008282546101f69190610dd5565b925050819055506000808054905060016102109190610d4a565b905060005b6000805490508110156102c857816006600080848154811061023a57610239610eec565b5b9060005260206000200160009054906101000a900473ffffffffffffffffffffffffffffffffffffffff1673ffffffffffffffffffffffffffffffffffffffff1673ffffffffffffffffffffffffffffffffffffffff16815260200190815260200160002060008282546102ae9190610cf4565b9250508190555080806102c090610e45565b915050610215565b50807fca37fba7960ad9edfde4e1e1d21cf7696d8a082ed1226867e646a9ace3f259de60405160405180910390a250565b6000600454905090565b61030c826109d9565b610315816109d9565b61031d610a21565b816003600082825461032f9190610cf4565b9250508190555080600460008282546103489190610cf4565b9250508190555060045460035461035f9190610d7b565b60058190555060003373ffffffffffffffffffffffffffffffffffffffff16600160405161038c90610c68565b60006040518083038185875af1925050503d80600081146103c9576040519150601f19603f3d011682016040523d82523d6000602084013e6103ce565b606091505b5050905080610412576040517f08c379a000000000000000000000000000000000000000000000000000000000815260040161040990610c7d565b60405180910390fd5b6000339080600181540180825580915050600190039060005260206000200160009091909190916101000a81548173ffffffffffffffffffffffffffffffffffffffff021916908373ffffffffffffffffffffffffffffffffffffffff16021790555081837ffbbbcaaede8c02d4011f67f839ff21516a6f8ba0b4242e70f55b31b7ad3f099760405160405180910390a3505050565b6001600660003373ffffffffffffffffffffffffffffffffffffffff1673ffffffffffffffffffffffffffffffffffffffff168152602001908152602001600020541161056b57600660003373ffffffffffffffffffffffffffffffffffffffff1673ffffffffffffffffffffffffffffffffffffffff168152602001908152602001600020546040517f6d96d5350000000000000000000000000000000000000000000000000000000081526004016105629190610cbd565b60405180910390fd5b565b610576826109d9565b6000806003549050600060045490508373ffffffffffffffffffffffffffffffffffffffff167f000000000000000000000000000000000000000000000000000000000000000073ffffffffffffffffffffffffffffffffffffffff16141561061d5784600360008282546105eb9190610cf4565b925050819055506003546005546106029190610d4a565b600481905550600454816106169190610dd5565b925061065d565b846004600082825461062f9190610cf4565b925050819055506004546005546106469190610d4a565b6003819055506003548261065a9190610dd5565b92505b6000339080600181540180825580915050600190039060005260206000200160009091909190916101000a81548173ffffffffffffffffffffffffffffffffffffffff021916908373ffffffffffffffffffffffffffffffffffffffff16021790555082857feaef2f839ec84468e22b8f4072e1efdc55916b369ab4abbbc76613580cc4dabf60405160405180910390a35050505050565b6106fe816109d9565b610706610a72565b6000806003549050600060045490508473ffffffffffffffffffffffffffffffffffffffff167f000000000000000000000000000000000000000000000000000000000000000073ffffffffffffffffffffffffffffffffffffffff1614156107f15783600354116107ad576040517f08c379a00000000000000000000000000000000000000000000000000000000081526004016107a490610c9d565b60405180910390fd5b83600360008282546107bf9190610dd5565b925050819055506003546005546107d69190610d4a565b600481905550806004546107ea9190610dd5565b9250610875565b8360045411610835576040517f08c379a000000000000000000000000000000000000000000000000000000000815260040161082c90610c9d565b60405180910390fd5b83600460008282546108479190610dd5565b9250508190555060045460055461085e9190610d4a565b600381905550816003546108729190610dd5565b92505b60003373ffffffffffffffffffffffffffffffffffffffff168560405161089b90610c68565b60006040518083038185875af1925050503d80600081146108d8576040519150601f19603f3d011682016040523d82523d6000602084013e6108dd565b606091505b5050905080610921576040517f08c379a000000000000000000000000000000000000000000000000000000000815260040161091890610c7d565b60405180910390fd5b600260009054906101000a900473ffffffffffffffffffffffffffffffffffffffff1673ffffffffffffffffffffffffffffffffffffffff16600160009054906101000a900473ffffffffffffffffffffffffffffffffffffffff1673ffffffffffffffffffffffffffffffffffffffff167fe10e2cb44087d880df24049c1077c24f076a5889a386724037283e8f68ff90ce60405160405180910390a36109c76101a6565b505050505050565b6000600354905090565b60008111610a1e57806040517f836b5d0b000000000000000000000000000000000000000000000000000000008152600401610a159190610cbd565b60405180910390fd5b50565b600080805490501115610a70576000805490506040517f1d02305a000000000000000000000000000000000000000000000000000000008152600401610a679190610cbd565b60405180910390fd5b565b600060035411610abb576003546040517f1e6ed288000000000000000000000000000000000000000000000000000000008152600401610ab29190610cbd565b60405180910390fd5b600060045411610b04576004546040517f7e191aa5000000000000000000000000000000000000000000000000000000008152600401610afb9190610cbd565b60405180910390fd5b565b600081359050610b1581610f75565b92915050565b600081359050610b2a81610f8c565b92915050565b60008060408385031215610b4757610b46610f1b565b5b6000610b5585828601610b06565b9250506020610b6685828601610b1b565b9150509250929050565b60008060408385031215610b8757610b86610f1b565b5b6000610b9585828601610b1b565b9250506020610ba685828601610b06565b9150509250929050565b60008060408385031215610bc757610bc6610f1b565b5b6000610bd585828601610b1b565b9250506020610be685828601610b1b565b9150509250929050565b6000610bfd600b83610ce3565b9150610c0882610f20565b602082019050919050565b6000610c20601e83610ce3565b9150610c2b82610f49565b602082019050919050565b6000610c43600083610cd8565b9150610c4e82610f72565b600082019050919050565b610c6281610e3b565b82525050565b6000610c7382610c36565b9150819050919050565b60006020820190508181036000830152610c9681610bf0565b9050919050565b60006020820190508181036000830152610cb681610c13565b9050919050565b6000602082019050610cd26000830184610c59565b92915050565b600081905092915050565b600082825260208201905092915050565b6000610cff82610e3b565b9150610d0a83610e3b565b9250827fffffffffffffffffffffffffffffffffffffffffffffffffffffffffffffffff03821115610d3f57610d3e610e8e565b5b828201905092915050565b6000610d5582610e3b565b9150610d6083610e3b565b925082610d7057610d6f610ebd565b5b828204905092915050565b6000610d8682610e3b565b9150610d9183610e3b565b9250817fffffffffffffffffffffffffffffffffffffffffffffffffffffffffffffffff0483118215151615610dca57610dc9610e8e565b5b828202905092915050565b6000610de082610e3b565b9150610deb83610e3b565b925082821015610dfe57610dfd610e8e565b5b828203905092915050565b6000610e1482610e1b565b9050919050565b600073ffffffffffffffffffffffffffffffffffffffff82169050919050565b6000819050919050565b6000610e5082610e3b565b91507fffffffffffffffffffffffffffffffffffffffffffffffffffffffffffffffff821415610e8357610e82610e8e565b5b600182019050919050565b7f4e487b7100000000000000000000000000000000000000000000000000000000600052601160045260246000fd5b7f4e487b7100000000000000000000000000000000000000000000000000000000600052601260045260246000fd5b7f4e487b7100000000000000000000000000000000000000000000000000000000600052603260045260246000fd5b600080fd5b7f43616c6c206661696c6564000000000000000000000000000000000000000000600082015250565b7f4e6f7420456e6f756768206c697175696469747920666f7220746f6b656e0000600082015250565b50565b610f7e81610e09565b8114610f8957600080fd5b50565b610f9581610e3b565b8114610fa057600080fd5b5056fea26469706673582212206b0c633309de16239d8770321c9fec88a0e945dd1ff661d9e5908c8d728f367b64736f6c63430008070033",
  "linkReferences": {},
  "deployedLinkReferences": {}
}