{
  "address": "0x48E48DeE855a6A229B6C74C2D4ce2BC9BF3788b8",
  "abi": [
    {
      "inputs": [
        {
          "internalType": "address",
          "name": "tokenA",
          "type": "address"
        },
        {
          "internalType": "address",
          "name": "tokenB",
          "type": "address"
        }
      ],
      "name": "WinDex__IdenticalAddress",
      "type": "error"
    },
    {
      "inputs": [
        {
          "internalType": "address",
          "name": "pair",
          "type": "address"
        }
      ],
      "name": "WinDex__PairAlreadyExists",
      "type": "error"
    },
    {
      "inputs": [
        {
          "internalType": "address",
          "name": "pair",
          "type": "address"
        }
      ],
      "name": "WinDex__PairDoesNotExist",
      "type": "error"
    },
    {
      "inputs": [
        {
          "internalType": "address",
          "name": "token",
          "type": "address"
        }
      ],
      "name": "WinDex__ZeroAddress",
      "type": "error"
    },
    {
      "anonymous": false,
      "inputs": [
        {
          "indexed": true,
          "internalType": "address",
          "name": "tokenA",
          "type": "address"
        },
        {
          "indexed": true,
          "internalType": "address",
          "name": "tokenB",
          "type": "address"
        },
        {
          "indexed": false,
          "internalType": "address",
          "name": "pair",
          "type": "address"
        }
      ],
      "name": "pairingCreated",
      "type": "event"
    },
    {
      "anonymous": false,
      "inputs": [
        {
          "indexed": true,
          "internalType": "address",
          "name": "pair",
          "type": "address"
        }
      ],
      "name": "pairingDeleted",
      "type": "event"
    },
    {
      "inputs": [
        {
          "internalType": "address",
          "name": "tokenA",
          "type": "address"
        },
        {
          "internalType": "address",
          "name": "tokenB",
          "type": "address"
        }
      ],
      "name": "createNewPairing",
      "outputs": [
        {
          "internalType": "address",
          "name": "pair",
          "type": "address"
        }
      ],
      "stateMutability": "nonpayable",
      "type": "function"
    },
    {
      "inputs": [
        {
          "internalType": "address",
          "name": "_pair",
          "type": "address"
        }
      ],
      "name": "deletePairing",
      "outputs": [],
      "stateMutability": "nonpayable",
      "type": "function"
    },
    {
      "inputs": [],
      "name": "getNumPairs",
      "outputs": [
        {
          "internalType": "uint256",
          "name": "",
          "type": "uint256"
        }
      ],
      "stateMutability": "view",
      "type": "function"
    },
    {
      "inputs": [
        {
          "internalType": "address",
          "name": "tokenA",
          "type": "address"
        },
        {
          "internalType": "address",
          "name": "tokenB",
          "type": "address"
        }
      ],
      "name": "getPair",
      "outputs": [
        {
          "internalType": "address",
          "name": "",
          "type": "address"
        }
      ],
      "stateMutability": "view",
      "type": "function"
    },
    {
      "inputs": [
        {
          "internalType": "address",
          "name": "",
          "type": "address"
        },
        {
          "internalType": "address",
          "name": "",
          "type": "address"
        }
      ],
      "name": "s_tokenPairing",
      "outputs": [
        {
          "internalType": "address",
          "name": "",
          "type": "address"
        }
      ],
      "stateMutability": "view",
      "type": "function"
    }
  ],
  "transactionHash": "0xa9960546b1702d7892a3b017272770301600397bded2aa972248cc8f058bad22",
  "args": [],
  "numDeployments": 4,
  "solcInputHash": "2c11f58f506d079359211f3cba35362d",
  "bytecode": "0x608060405234801561001057600080fd5b50611d5b806100206000396000f3fe608060405234801561001057600080fd5b50600436106100575760003560e01c80632398184d1461005c57806326c9c3201461008c5780634dc214ad146100a85780638704fc40146100c6578063e6a43905146100f6575b600080fd5b61007660048036038101906100719190610ceb565b610126565b6040516100839190610d8c565b60405180910390f35b6100a660048036038101906100a19190610cbe565b61047b565b005b6100b0610699565b6040516100bd9190610dd0565b60405180910390f35b6100e060048036038101906100db9190610ceb565b6106a6565b6040516100ed9190610d8c565b60405180910390f35b610110600480360381019061010b9190610ceb565b6106e8565b60405161011d9190610d8c565b60405180910390f35b60006101328383610917565b6101d66000808573ffffffffffffffffffffffffffffffffffffffff1673ffffffffffffffffffffffffffffffffffffffff16815260200190815260200160002060008473ffffffffffffffffffffffffffffffffffffffff1673ffffffffffffffffffffffffffffffffffffffff16815260200190815260200160002060009054906101000a900473ffffffffffffffffffffffffffffffffffffffff16610a72565b6000604051806020016101e890610c9c565b6020820181038252601f19601f82011660405250905060008484604051602001610213929190610d60565b604051602081830303815290604052805190602001209050808251602084016000f59250826000808773ffffffffffffffffffffffffffffffffffffffff1673ffffffffffffffffffffffffffffffffffffffff16815260200190815260200160002060008673ffffffffffffffffffffffffffffffffffffffff1673ffffffffffffffffffffffffffffffffffffffff16815260200190815260200160002060006101000a81548173ffffffffffffffffffffffffffffffffffffffff021916908373ffffffffffffffffffffffffffffffffffffffff160217905550826000808673ffffffffffffffffffffffffffffffffffffffff1673ffffffffffffffffffffffffffffffffffffffff16815260200190815260200160002060008773ffffffffffffffffffffffffffffffffffffffff1673ffffffffffffffffffffffffffffffffffffffff16815260200190815260200160002060006101000a81548173ffffffffffffffffffffffffffffffffffffffff021916908373ffffffffffffffffffffffffffffffffffffffff1602179055506001839080600181540180825580915050600190039060005260206000200160009091909190916101000a81548173ffffffffffffffffffffffffffffffffffffffff021916908373ffffffffffffffffffffffffffffffffffffffff1602179055508373ffffffffffffffffffffffffffffffffffffffff168573ffffffffffffffffffffffffffffffffffffffff167f1ca325d8a248c144ac66441bc260a39ec462855271390b7b7da8b81c668d9b658560405161046b9190610d8c565b60405180910390a3505092915050565b61048481610b48565b60005b60018054905081101561069557600181815481106104a8576104a7610f26565b5b9060005260206000200160009054906101000a900473ffffffffffffffffffffffffffffffffffffffff1673ffffffffffffffffffffffffffffffffffffffff168273ffffffffffffffffffffffffffffffffffffffff161415610682576001818154811061051a57610519610f26565b5b9060005260206000200160006101000a81549073ffffffffffffffffffffffffffffffffffffffff02191690556000600180808054905061055b9190610deb565b8154811061056c5761056b610f26565b5b9060005260206000200160009054906101000a900473ffffffffffffffffffffffffffffffffffffffff16905080600183815481106105ae576105ad610f26565b5b9060005260206000200160006101000a81548173ffffffffffffffffffffffffffffffffffffffff021916908373ffffffffffffffffffffffffffffffffffffffff160217905550600180548061060857610607610ef7565b5b6001900381819060005260206000200160006101000a81549073ffffffffffffffffffffffffffffffffffffffff021916905590558273ffffffffffffffffffffffffffffffffffffffff167f480cc0160eaaa99ea77b486709e90901785b3de8b5127126f5a7d0a57df1e97e60405160405180910390a2505b808061068d90610e5b565b915050610487565b5050565b6000600180549050905090565b60006020528160005260406000206020528060005260406000206000915091509054906101000a900473ffffffffffffffffffffffffffffffffffffffff1681565b60006106f48383610917565b6107986000808573ffffffffffffffffffffffffffffffffffffffff1673ffffffffffffffffffffffffffffffffffffffff16815260200190815260200160002060008473ffffffffffffffffffffffffffffffffffffffff1673ffffffffffffffffffffffffffffffffffffffff16815260200190815260200160002060009054906101000a900473ffffffffffffffffffffffffffffffffffffffff16610b48565b60005b60018054905081101561090f57600181815481106107bc576107bb610f26565b5b9060005260206000200160009054906101000a900473ffffffffffffffffffffffffffffffffffffffff1673ffffffffffffffffffffffffffffffffffffffff166000808673ffffffffffffffffffffffffffffffffffffffff1673ffffffffffffffffffffffffffffffffffffffff16815260200190815260200160002060008573ffffffffffffffffffffffffffffffffffffffff1673ffffffffffffffffffffffffffffffffffffffff16815260200190815260200160002060009054906101000a900473ffffffffffffffffffffffffffffffffffffffff1673ffffffffffffffffffffffffffffffffffffffff1614156108fc57600181815481106108c9576108c8610f26565b5b9060005260206000200160009054906101000a900473ffffffffffffffffffffffffffffffffffffffff16915050610911565b808061090790610e5b565b91505061079b565b505b92915050565b600073ffffffffffffffffffffffffffffffffffffffff168273ffffffffffffffffffffffffffffffffffffffff16141561098957816040517f223308930000000000000000000000000000000000000000000000000000000081526004016109809190610d8c565b60405180910390fd5b600073ffffffffffffffffffffffffffffffffffffffff168173ffffffffffffffffffffffffffffffffffffffff1614156109fb57806040517f223308930000000000000000000000000000000000000000000000000000000081526004016109f29190610d8c565b60405180910390fd5b8073ffffffffffffffffffffffffffffffffffffffff168273ffffffffffffffffffffffffffffffffffffffff161415610a6e5781816040517fc429ceab000000000000000000000000000000000000000000000000000000008152600401610a65929190610da7565b60405180910390fd5b5050565b60005b600180549050811015610b445760018181548110610a9657610a95610f26565b5b9060005260206000200160009054906101000a900473ffffffffffffffffffffffffffffffffffffffff1673ffffffffffffffffffffffffffffffffffffffff168273ffffffffffffffffffffffffffffffffffffffff161415610b3157816040517fc4b25254000000000000000000000000000000000000000000000000000000008152600401610b289190610d8c565b60405180910390fd5b8080610b3c90610e5b565b915050610a75565b5050565b600073ffffffffffffffffffffffffffffffffffffffff168173ffffffffffffffffffffffffffffffffffffffff161415610bba57806040517f116dd389000000000000000000000000000000000000000000000000000000008152600401610bb19190610d8c565b60405180910390fd5b6000805b600180549050811015610c555760018181548110610bdf57610bde610f26565b5b9060005260206000200160009054906101000a900473ffffffffffffffffffffffffffffffffffffffff1673ffffffffffffffffffffffffffffffffffffffff168373ffffffffffffffffffffffffffffffffffffffff161415610c4257600191505b8080610c4d90610e5b565b915050610bbe565b5080610c9857816040517f116dd389000000000000000000000000000000000000000000000000000000008152600401610c8f9190610d8c565b60405180910390fd5b5050565b610da780610f7f83390190565b600081359050610cb881610f67565b92915050565b600060208284031215610cd457610cd3610f55565b5b6000610ce284828501610ca9565b91505092915050565b60008060408385031215610d0257610d01610f55565b5b6000610d1085828601610ca9565b9250506020610d2185828601610ca9565b9150509250929050565b610d3481610e1f565b82525050565b610d4b610d4682610e1f565b610ea4565b82525050565b610d5a81610e51565b82525050565b6000610d6c8285610d3a565b601482019150610d7c8284610d3a565b6014820191508190509392505050565b6000602082019050610da16000830184610d2b565b92915050565b6000604082019050610dbc6000830185610d2b565b610dc96020830184610d2b565b9392505050565b6000602082019050610de56000830184610d51565b92915050565b6000610df682610e51565b9150610e0183610e51565b925082821015610e1457610e13610ec8565b5b828203905092915050565b6000610e2a82610e31565b9050919050565b600073ffffffffffffffffffffffffffffffffffffffff82169050919050565b6000819050919050565b6000610e6682610e51565b91507fffffffffffffffffffffffffffffffffffffffffffffffffffffffffffffffff821415610e9957610e98610ec8565b5b600182019050919050565b6000610eaf82610eb6565b9050919050565b6000610ec182610f5a565b9050919050565b7f4e487b7100000000000000000000000000000000000000000000000000000000600052601160045260246000fd5b7f4e487b7100000000000000000000000000000000000000000000000000000000600052603160045260246000fd5b7f4e487b7100000000000000000000000000000000000000000000000000000000600052603260045260246000fd5b600080fd5b60008160601b9050919050565b610f7081610e1f565b8114610f7b57600080fd5b5056fe60c060405234801561001057600080fd5b50604051610da7380380610da7833981810160405281019061003291906100bc565b8173ffffffffffffffffffffffffffffffffffffffff1660808173ffffffffffffffffffffffffffffffffffffffff1660601b815250508073ffffffffffffffffffffffffffffffffffffffff1660a08173ffffffffffffffffffffffffffffffffffffffff1660601b81525050505061014a565b6000815190506100b681610133565b92915050565b600080604083850312156100d3576100d261012e565b5b60006100e1858286016100a7565b92505060206100f2858286016100a7565b9150509250929050565b60006101078261010e565b9050919050565b600073ffffffffffffffffffffffffffffffffffffffff82169050919050565b600080fd5b61013c816100fc565b811461014757600080fd5b50565b60805160601c60a05160601c610c1d61018a6000396000818161038001526103a40152600081816103200152818161035d01526103c70152610c1d6000f3fe6080604052600436106100555760003560e01c8063127f61cb1461005a5780631bd8db03146100865780632c3c1e1f146100b157806388955a5d146100bb5780639cd441da146100e4578063d004f0f71461010d575b600080fd5b34801561006657600080fd5b5061006f610136565b60405161007d929190610976565b60405180910390f35b34801561009257600080fd5b5061009b610147565b6040516100a8919061095b565b60405180910390f35b6100b9610150565b005b3480156100c757600080fd5b506100e260048036038101906100dd9190610891565b610152565b005b3480156100f057600080fd5b5061010b60048036038101906101069190610891565b61022b565b005b34801561011957600080fd5b50610134600480360381019061012f9190610851565b6102fc565b005b600080600154600254915091509091565b60006001905090565b565b61015c82826106c4565b610164610752565b816001600082825461017691906109bb565b92505081905550806002600082825461018f91906109bb565b925050819055506000339080600181540180825580915050600190039060005260206000200160009091909190916101000a81548173ffffffffffffffffffffffffffffffffffffffff021916908373ffffffffffffffffffffffffffffffffffffffff16021790555080827ffbbbcaaede8c02d4011f67f839ff21516a6f8ba0b4242e70f55b31b7ad3f099760405160405180910390a35050565b61023582826106c4565b816001600082825461024791906109bb565b92505081905550806002600082825461026091906109bb565b925050819055506000339080600181540180825580915050600190039060005260206000200160009091909190916101000a81548173ffffffffffffffffffffffffffffffffffffffff021916908373ffffffffffffffffffffffffffffffffffffffff16021790555080827feaef2f839ec84468e22b8f4072e1efdc55916b369ab4abbbc76613580cc4dabf60405160405180910390a35050565b610304610793565b6000808373ffffffffffffffffffffffffffffffffffffffff167f000000000000000000000000000000000000000000000000000000000000000073ffffffffffffffffffffffffffffffffffffffff1614156103a2577f000000000000000000000000000000000000000000000000000000000000000091507f000000000000000000000000000000000000000000000000000000000000000090505b7f000000000000000000000000000000000000000000000000000000000000000091507f000000000000000000000000000000000000000000000000000000000000000090506001600460003373ffffffffffffffffffffffffffffffffffffffff1673ffffffffffffffffffffffffffffffffffffffff16815260200190815260200160002060008282546104389190610a42565b9250508190555060005b6000805490508110156105065760008054905060016104619190610a11565b6004600080848154811061047857610477610b59565b5b9060005260206000200160009054906101000a900473ffffffffffffffffffffffffffffffffffffffff1673ffffffffffffffffffffffffffffffffffffffff1673ffffffffffffffffffffffffffffffffffffffff16815260200190815260200160002060008282546104ec91906109bb565b9250508190555080806104fe90610ab2565b915050610442565b5060003373ffffffffffffffffffffffffffffffffffffffff168460405161052d90610926565b60006040518083038185875af1925050503d806000811461056a576040519150601f19603f3d011682016040523d82523d6000602084013e61056f565b606091505b50509050806105b3576040517f08c379a00000000000000000000000000000000000000000000000000000000081526004016105aa9061093b565b60405180910390fd5b8173ffffffffffffffffffffffffffffffffffffffff168373ffffffffffffffffffffffffffffffffffffffff167fe10e2cb44087d880df24049c1077c24f076a5889a386724037283e8f68ff90ce60405160405180910390a383600360008573ffffffffffffffffffffffffffffffffffffffff1673ffffffffffffffffffffffffffffffffffffffff168152602001908152602001600020600082825461065c9190610a42565b925050819055508173ffffffffffffffffffffffffffffffffffffffff168373ffffffffffffffffffffffffffffffffffffffff167fb02023df1c034ab26c319ec8793cec4faa5b2b8b5b0c19cb27be49736aa0ffed60405160405180910390a35050505050565b6000821161070957816040517f836b5d0b000000000000000000000000000000000000000000000000000000008152600401610700919061095b565b60405180910390fd5b6000811161074e57806040517f836b5d0b000000000000000000000000000000000000000000000000000000008152600401610745919061095b565b60405180910390fd5b5050565b600080805490501115610791576040517f8368ba9400000000000000000000000000000000000000000000000000000000815260040160405180910390fd5b565b6000600154116107dc576001546040517fcb91fd840000000000000000000000000000000000000000000000000000000081526004016107d3919061095b565b60405180910390fd5b600060025411610825576002546040517fcb91fd8400000000000000000000000000000000000000000000000000000000815260040161081c919061095b565b60405180910390fd5b565b60008135905061083681610bb9565b92915050565b60008135905061084b81610bd0565b92915050565b6000806040838503121561086857610867610b88565b5b600061087685828601610827565b92505060206108878582860161083c565b9150509250929050565b600080604083850312156108a8576108a7610b88565b5b60006108b68582860161083c565b92505060206108c78582860161083c565b9150509250929050565b60006108de600b836109aa565b91506108e982610b8d565b602082019050919050565b600061090160008361099f565b915061090c82610bb6565b600082019050919050565b61092081610aa8565b82525050565b6000610931826108f4565b9150819050919050565b60006020820190508181036000830152610954816108d1565b9050919050565b60006020820190506109706000830184610917565b92915050565b600060408201905061098b6000830185610917565b6109986020830184610917565b9392505050565b600081905092915050565b600082825260208201905092915050565b60006109c682610aa8565b91506109d183610aa8565b9250827fffffffffffffffffffffffffffffffffffffffffffffffffffffffffffffffff03821115610a0657610a05610afb565b5b828201905092915050565b6000610a1c82610aa8565b9150610a2783610aa8565b925082610a3757610a36610b2a565b5b828204905092915050565b6000610a4d82610aa8565b9150610a5883610aa8565b925082821015610a6b57610a6a610afb565b5b828203905092915050565b6000610a8182610a88565b9050919050565b600073ffffffffffffffffffffffffffffffffffffffff82169050919050565b6000819050919050565b6000610abd82610aa8565b91507fffffffffffffffffffffffffffffffffffffffffffffffffffffffffffffffff821415610af057610aef610afb565b5b600182019050919050565b7f4e487b7100000000000000000000000000000000000000000000000000000000600052601160045260246000fd5b7f4e487b7100000000000000000000000000000000000000000000000000000000600052601260045260246000fd5b7f4e487b7100000000000000000000000000000000000000000000000000000000600052603260045260246000fd5b600080fd5b7f43616c6c206661696c6564000000000000000000000000000000000000000000600082015250565b50565b610bc281610a76565b8114610bcd57600080fd5b50565b610bd981610aa8565b8114610be457600080fd5b5056fea2646970667358221220cb00eba46a09276425136f71fcca5b2222bf3b1dcf92ebc108bb085c398b8c0e64736f6c63430008070033a2646970667358221220f4d33c0df5d28093d4da54b1d7a986f9716972f7390f90208f79d4f69a479e4e64736f6c63430008070033",
  "devdoc": {
    "kind": "dev",
    "methods": {},
    "version": 1
  },
  "userdoc": {
    "kind": "user",
    "methods": {},
    "version": 1
  },
  "storageLayout": {
    "storage": [
      {
        "astId": 737,
        "contract": "contracts/WinFactory.sol:WinFactory",
        "label": "s_tokenPairing",
        "offset": 0,
        "slot": "0",
        "type": "t_mapping(t_address,t_mapping(t_address,t_address))"
      },
      {
        "astId": 740,
        "contract": "contracts/WinFactory.sol:WinFactory",
        "label": "s_liquidityPool",
        "offset": 0,
        "slot": "1",
        "type": "t_array(t_address)dyn_storage"
      }
    ],
    "types": {
      "t_address": {
        "encoding": "inplace",
        "label": "address",
        "numberOfBytes": "20"
      },
      "t_array(t_address)dyn_storage": {
        "base": "t_address",
        "encoding": "dynamic_array",
        "label": "address[]",
        "numberOfBytes": "32"
      },
      "t_mapping(t_address,t_address)": {
        "encoding": "mapping",
        "key": "t_address",
        "label": "mapping(address => address)",
        "numberOfBytes": "32",
        "value": "t_address"
      },
      "t_mapping(t_address,t_mapping(t_address,t_address))": {
        "encoding": "mapping",
        "key": "t_address",
        "label": "mapping(address => mapping(address => address))",
        "numberOfBytes": "32",
        "value": "t_mapping(t_address,t_address)"
      }
    }
  }
}